:020000040040BA
:10000000C83800207910400075104000751040007D
:100010007510400075104000751040000000000091
:10002000000000000000000000000000751040000B
:100030007510400000000000751040007510400071
:10004000751040007510400075104000751040009C
:10005000751040007510400075104000751040008C
:10006000751040007510400000000000F90E4000BF
:100070000D0F4000210F400075104000751040002A
:1000800000000000000000007510400075104000E6
:10009000751040007510400075104000F9124000C6
:1000A000751040007510400075104000751040003C
:1000B00075104000D11240007510400075104000CE
:1000C00075104000751040007510400010B5054CCB
:1000D000237833B9044B13B10448AFF300800123F4
:1000E000237010BD380400200000000014B241004D
:1000F000084B10B51BB108480849AFF30080084809
:10010000036803B910BD074B002BFBD0BDE81040BE
:10011000184700BF0000000014B241003C0400205A
:1001200014B241000000000030B401240460002437
:10013000446040F20225C0F82051C0F80441C0F8E4
:10014000144145682B435200B1FBF2F14A1E1202E2
:1001500092B213434360204630BC70474368194352
:10016000D201D2B211434160704700BF10B444685D
:100170002243090601F070610A431B0703F0405354
:10018000134343605DF8044B704700BF02230360D4
:10019000704700BF01238B40036170470F299ABF4E
:1001A000143150F821000020704700BF41627047B1
:1001B000006B704701230360704700BF41B1436883
:1001C00043F480734360436843F01003436007E0E7
:1001D000436843F480734360436823F01003436033
:1001E00000207047006B7047016270474368012927
:1001F00006D823F4981343EA014141600020704778
:1002000001207047012904D801238B40036100209D
:1002100070470120704700BFC0F89410002070475D
:1002200010B489014318022444504FF0FF31996201
:10023000196A5A605DF8044B704700BF89010523B5
:100240004350704700EB8111CA61704700EB811188
:100250004A62704700EB8111086A704710B50E487A
:100260000E4B984700203E210D4B98470D4CA04760
:100270000028FCD00C4B98470C4A0D4B9A620D4C51
:10028000A0470028FCD010200B4B98470B4B9847F9
:100290000148024B984710BD000E27073D12400051
:1002A0009D0F4000F10F400001104000013F13205E
:1002B00000040E4011104000350F4000291140008D
:1002C00038B54FF40042244B5A600B20234CA04712
:1002D0000C20A0470D20A04713204FF06051204C68
:1002E000A04714204FF06051A04723201D49A0478C
:1002F0004C201D49A0471D484FF4C0614FF00062DB
:100300001B4B98471B4D40202946A04741202946BA
:10031000A04742202946A04743202946A047442021
:100320002946A04745202946A04746202946A04700
:1003300047202946A0474B202946A0474820294668
:10034000A0474F202946A04753202946A0474D20CB
:100350004FF04051A04738BD50140E4021104000CE
:10036000910C40007900002859000028000E0E4032
:10037000B50D40000100000870B483B0C0F1110059
:10038000102828BF1020002808BF01200021104E8F
:100390004FF40055182475630194019B5A1E019275
:1003A000002BFAD135630194019B5A1E0192002B58
:1003B000FAD101318142EED34FF400330193019B16
:1003C0005A1E0192002BFAD103B070BC704700BFD7
:1003D00000120E4082B04FF40052064B5A634FF4A5
:1003E00000330193019B5A1E0192002BFAD102B0F7
:1003F000704700BF00120E400A4B1B78012B06D13C
:100400004FF0C24300221A7022221A707047022B4A
:1004100007D14FF0C2432C221A7000221A703C22DE
:100420001A70704714080020C0F30742034B1A707B
:10043000C0F307221A70C0B2187070470200006142
:100440002DE9F8430746884631F0070918D00446DD
:100450000026124D57F82600A8476068A847A068F4
:10046000A847E068A8472069A8476069A847A0692D
:10047000A847E069A847083620344E45EAD300E093
:100480000026B04508D907EB8604044D54F8040B48
:10049000A8470136B045F9D8BDE8F88329044000E3
:1004A0004FF0C24300221A7018700A0A02331A7001
:1004B000C9B21970704700BF10B44FF0C243002496
:1004C0001C7018704AB14B1E501E51FA80F104483E
:1004D00013F8012F02708B42FAD15DF8044B70477C
:1004E0000200006182B000230193019B984211D960
:1004F0000021094A0191019B934205D8019B0133D8
:100500000193019B9342F9D9019B01330193019B14
:100510008342EFD302B070479F86010030B4154C80
:1005200024680568A54224BF04F1FF3505601568FD
:10053000AC429CBF04F1FF3414600F4C24680D687A
:10054000A54224BF04F1FF350D601D68AC429CBF7D
:1005500004F1FF341C6004681568AC4284BF056078
:1005600014600A681868824284BF08601A6030BC50
:10057000704700BF000000200400002082B04FF050
:10058000C24300221A70D3221A7002331A788DF8EF
:1005900000201A788DF801201A788DF802201B7837
:1005A000DBB28DF80330D2B203EB02239BB249F2E7
:1005B0004132934204D102220E4B1A70002017E000
:1005C0004FF0C24300221A701A7002331A788DF865
:1005D00000201B78D2B203EB02239BB249F22532F2
:1005E000934204D10122034B1A70002000E0012045
:1005F00002B070471408002008B5094B1B78012B86
:1006000005D1072040F23311064B984708BD022B55
:1006100004D1292000210A46034B984708BD00BF9A
:1006200014080020A1044000B9044000044A131F2C
:1006300002F56F7243F8040F9342FBD1704700BF7D
:10064000540400202DE9F04182B00C4617461E46A6
:10065000224B1B78012B14D185B250202946DFF89C
:100660008480C047791E2944512089B2C047A4B272
:1006700052202146C047711E2144532089B2C047F1
:1006800028E0022B26D1030A8DF80430C3B28DF87E
:100690000530013A1044000A8DF8060017461F4441
:1006A0008DF807702A2001A904220D4DA847230ABE
:1006B0008DF80430E3B28DF80530721E1444240A1C
:1006C0008DF8064016461E448DF807602B2001A9C0
:1006D0000422A84702B0BDE8F08100BF1408002042
:1006E000B9044000A104400038B5064B1B78012B2B
:1006F00007D10C4601462020034DA8472120214662
:10070000A84738BD14080020A10440002DE9F0439B
:1007100083B00646AC4B9847002840F04F81F0224A
:10072000AA4B1A604FF4A072A94B1A60A94B1B7810
:10073000012B40F0B18007203321A74CA0471020A7
:100740000021A04700200121A04701204FF4807123
:10075000A04702204FF4E061A04704200021A047F9
:10076000082040F20721A04709200021A0470A20C5
:100770000021A0470C200021A0470D200021A04708
:100780000F200021A04710200021A04711200021A8
:10079000A04712200021A04713200021A047C82015
:1007A0008E4DA847102041F29021A047112040F221
:1007B0002721A0473220A84712201B21A047322022
:1007C000A84713204FF48851A04729201921A0479A
:1007D0002B200D21A0473220A84730200021A04720
:1007E00031204FF40171A04732204FF40071A0472F
:1007F00035200721A047362041F20441A047372089
:1008000040F20571A047382040F20531A047392059
:1008100040F20771A0473C2040F20171A0473D2003
:100820000E21A04703204DF21001A04760204FF495
:100830002741A04761200121A0476A200021A0474D
:1008400080200021A04781200021A0478220002194
:10085000A04783200021A04784200021A0478520B5
:100860000021A04790201021A04792204FF4C061A2
:10087000A04795204FF48871A047002001463268B8
:100880007368574CA047B068564B98470020014604
:10089000554B9847002094E0022B40F0918039237B
:1008A0008DF800302C238DF8013000248DF80240A3
:1008B00034238DF8033002278DF80470CB2069466D
:1008C00005224A4DA8478DF80040AA238DF8013033
:1008D000B0238DF80230CF2069460322A847302389
:1008E0008DF80030F72069460122A84725238DF8AE
:1008F0000030C02069460122A8474FF011098DF849
:100900000090C12069460122A8475C238DF8003081
:100910004C238DF80130C52069463A46A8479423F8
:100920008DF80030C72069460122A84785238DF83D
:1009300000304FF001088DF8018078238DF80230E7
:10094000E82069460322A8478DF800408DF8014051
:10095000EA2069463A46A84748238DF800303620F9
:1009600069464246A84706238DF800303A2069467A
:100970004246A8478DF8007082238DF80130272366
:100980008DF802308DF80340B62069460422A8474E
:100990002046214632687368114FB847B068114B42
:1009A0009847484669462246A8470A200B4B984775
:1009B000292069462246A847204602E0012000E09F
:1009C000012003B0BDE8F0837D0540000000002059
:1009D0000400002014080020A1044000E5044000A9
:1009E000450640002D064000E9064000B9044000DD
:1009F0002DE9F04184B0039002910192009303A885
:100A000002A901AA6B46224CA047039D029C0199B2
:100A10004A1C00994B1C28462146521B1B1B1D4C8F
:100A2000A047BDF80C00BDF808101B4B98471B4BA6
:100A30009847029A009B9A1A019B03F10108039BB5
:100A4000C3EB080802FB0888154CA4FB0834E40932
:100A500007D0144FF026144D38463146A847013CC4
:100A6000FAD10F49A1FB0831C909C1EB01110D48A9
:100A7000A8EB01110C4B9847002001460B4B1A685C
:100A80000B4B1B68034CA04704B0BDE8F08100BFCE
:100A90001D05400045064000E9064000F9034000FE
:100AA0008988888854040020410440000000002008
:100AB0000400002030B585B00390029102440192F9
:100AC0000B44009303A802A901AA6B46224CA0473D
:100AD000039D029C01994A1C00994B1C2846214603
:100AE000521B1B1B1D4CA0471D4B1B78012B1AD101
:100AF000BDF80C00BDF808101A4B98471A4B9847E0
:100B00000299009B5B1A0399019A511A089801FBFC
:100B100003F1164B984700200146154B1A68154BF8
:100B20001B68A04716E0022B14D10F4B984702997F
:100B3000009B5B1A0399019A511A089801FB03F173
:100B40000A4B984700200146094B1A68094B1B685D
:100B5000024CA04705B030BD1D05400045064000D1
:100B600014080020E9064000F90340004104400059
:100B7000000000200400002009014250704700BF1F
:100B800000EB01114A60704700EB01118A60704769
:100B900000EB0111CA6070474264B1F1C05F2FD011
:100BA00007D8B1F1006F14D0B1F1805F1ED039B910
:100BB0007047B1F1205F37D004D8B1F1005F29D080
:100BC00042607047B1F1405F2ED0B1F1605F2BD031
:100BD000F6E710B4016F046FD34321401940016759
:100BE000416F446F21400B4043671AE0036F13438A
:100BF0000367436F416F0B4023EA02034367DFE75C
:100C0000036F016F0B4023EA02030367436F134333
:100C10004367D5E7036F13430367436F134343678A
:100C2000CEE742605DF8044B704700BF416412F0AC
:100C3000010F14BF4166016612F00A0F14BF016272
:100C4000416212F0020F02D0C0F8801004E012F0EE
:100C5000080F18BFC0F8841041610160704700BFE1
:100C600010B44164019C0CB1416600E001660BB117
:100C7000016500E041650AB1016300E04163016183
:100C800001605DF8044B7047C06C7047806C704722
:100C900070B582B00D46430903F5001303F20773E4
:100CA0005C0201F0F043B3F1005F47D009D8B3F123
:100CB000805F21D0B3F1C05F2FD0B3F1006F6FD14F
:100CC00009E0B3F1405F55D0B3F1605F52D0B3F1AA
:100CD000205F44D064E000F01F00012686402046DB
:100CE0004FF000613246304B984715F0010F14BFAA
:100CF00066662666012054E000F01F00012686404B
:100D000020464FF080513246274B984715F0010F8F
:100D100014BF66662666012043E000F01F0001262E
:100D2000864020464FF0C05132461F4B984715F081
:100D3000010F14BF66662666012032E000F01F0036
:100D40000126864020464FF000513246164B984708
:100D500015F0010F14BF66662666012021E000F041
:100D60001F030126204606FA03F12A460F4B984737
:100D7000304616E000F01F03012605F0605205EA38
:100D800006010091204606FA03F1B2F1605F14BF3C
:100D900000220122C5F38003054CA047304600E045
:100DA000002002B070BD00BF990B40002D0C400028
:100DB000610C400070B582B006460D46144602F044
:100DC000F043B3F1005F38D009D8B3F1805F1CD095
:100DD000B3F1C05F25D0B3F1006F50D109E0B3F19A
:100DE000405F3AD0B3F1605F37D0B3F1205F30D0CD
:100DF00045E04FF000612A46224B984714F0010F5E
:100E000014BF7566356601203AE04FF080512A46DE
:100E10001C4B984714F0010F14BF7566356601200E
:100E20002EE04FF0C0512A46164B984714F0010FA0
:100E300014BF75663566012022E04FF000512A4646
:100E4000104B984714F0010F14BF756635660120EA
:100E500016E00D4B9847012012E004F0605204F0B8
:100E60000103009330462946B2F1605F14BF0022AF
:100E70000122C4F38003054CA047012000E00020BC
:100E800002B070BD990B40002D0C4000610C400079
:100E90002DE9F84381468846124B98470546484657
:100EA000114B9847054013D0104C04F1600623689D
:100EB000434508D16168294205D0E3684046984718
:100EC000636825EA0305B44202D01034002DEED148
:100ED000074B1B6823B1074B1B680BB1484698476B
:100EE000BDE8F883890C40008D0C40001C080020F0
:100EF000940800201808002008B502480B21024B76
:100F0000984708BD000E0E40910E400008B50248FB
:100F10000C21024B984708BD00100E40910E400076
:100F200008B502480D21024B984708BD00120E403B
:100F3000910E4000184A136B23F07003184310639E
:100F4000936E13F0080F03D009E0013B03D11EE0BC
:100F50004FF4006310498A6E12F0080FF5D00E4A64
:100F6000136B23F0030343F002031363906E10F03E
:100F7000080004D000207047013B03D109E04FF482
:100F8000006305498A6E12F0080FF5D07047012002
:100F900070470120704700BF00040E4038B111496E
:100FA0000B6A114A1A40114B13430B6270470D4AEA
:100FB000136A23F45C1323F0030343F45C1343F03C
:100FC0000103090289B20B431362936E13F0010F00
:100FD000FBD0044A136A43F09B7343F480331362DB
:100FE000704700BF00040E40FCFFC8FE020037013E
:100FF000024B986E00F48030704700BF00040E4032
:101000004FF00052014B9A62704700BF00040E403F
:10101000024B986E00F00200704700BF00040E40C3
:1010200022281ED81F280CD8114B9A69012383400F
:101030001A40934217D0012383400D4A13610020C8
:1010400070470B4BD3F808212038012383401A4006
:1010500093420AD001238340054AC2F800310020A0
:10106000704701207047002070470020704700BF84
:1010700000040E40FEE700BF08B5204B204A9A420C
:1010800013D9204B1D4A9A421FD211460432033312
:101090009B1A23F003030433194A134452F8040B38
:1010A00041F8040B9A42F9D10FE0144B144A9A42CA
:1010B0000BD2144B114A9A1A134881182AB151F8CD
:1010C000042943F8042D8142F9D100BF0F4B104A87
:1010D0009A420BD2131D0F4AD21A22F003021A446D
:1010E000043B002143F8041B9342FBD10A4B0B4AFB
:1010F0009A600B4B98470B4B9847FEE70000002087
:1011000014B241003804002010B24100C40800208D
:1011100038040020C708002000ED00E00000400077
:10112000CD374000A91540003D4B1B6B03F0030376
:10113000032B5DD8DFE803F0020E2B2B394B5B69E4
:1011400013F0800F14BF4FF400424FF4FA42364BB5
:101150001A604DE0324B1B6A13F0807F03D0334A94
:10116000314B1A6044E0324A2F4B1A602C4B1B6AF9
:1011700003F07003102B02D0202B04D038E02D4A4E
:10118000294B1A6034E0294A274B1A6030E0244B7F
:101190001B6A13F0807F03D0244A234B1A6012E0AD
:1011A000234A214B1A601E4B1B6A03F07003102B5D
:1011B00002D0202B04D006E01E4A1B4B1A6002E02E
:1011C0001A4A194B1A60164B1B6B03F00303022BD0
:1011D000134A07BF936A926AD36AD26A1248C3F36A
:1011E0000A41036801FB0333D2B2B3FBF2F303609D
:1011F0000B4B1B6B03F07003702B07D10A4A13686B
:101200000D49A1FB03135B0813607047044B1A6B75
:101210000549C2F302120B68D3400B60704700BF50
:1012200000040E4010140E4008000020001BB70000
:1012300000093D0000127A00ABAAAAAA1A4B9842F4
:1012400007D84FF08063194A136002F500721360EB
:101250007047174B984206D8164B144A136002F594
:10126000007213607047144B984206D8134B0F4A14
:10127000136002F5007213607047114B984206D854
:10128000104B0A4A136002F50072136070470E4B50
:10129000984294BF4FF004230C4B044A136002F5AC
:1012A00000721360704700BFFF2C3101000A0E402E
:1012B000FF59620200010004FF869303000200044C
:1012C000FFB3C40400030004FFE0F50500050004BB
:1012D00010B5054C2046054B984720460521044B88
:1012E0009847044B186010BD00800340B1014000D6
:1012F0009D014000A00800202DE9F04383B02E4856
:1013000000212E4B98470190019B2D4B1B68B3F594
:10131000FA7F05DB2B482C4B98470022284B1A609C
:10132000274A1368013313602848294B98470090D7
:10133000284B1A68284B1B689A4202DD0022254B75
:101340001A60244C254F2068B847254B1968254B57
:101350009847254DA847254B98470022244B254EFA
:10136000B04780468946244B1868B847A8470246CC
:101370000B46224D40464946A847214E0022214BAC
:10138000B0470022204BB04709A3D3E90023A84768
:101390001E4B98471E4B18601E4B984701460B4842
:1013A0001D4B984723680133236003B0BDE8F083E9
:1013B0000000006066660A400000014055024000DF
:1013C0008C080020008003408D01400000C00340D5
:1013D000E5014000900800209808002045344000B6
:1013E000C0080020ED344000052C40006916400084
:1013F0000000F03F49294000A0080020AD2C40002B
:10140000012F40000000144000001840313240001D
:10141000B80800208D374000E90140002DE9F04177
:101420000A201E4B98471E4C204601214FF00232E5
:101430001C4B9847204601211B4A1C4B98472046CD
:1014400001211B4A1B4B98472046012103221A4BBE
:1014500098471A4DF0272F604FF4A0766E60002455
:10146000AC606FF07F48C5F80C80154B9847284654
:10147000144B98470820144B98474046134B984705
:10148000204621463A463346114DA847114B98470E
:1014900020462146104B9847BDE8F08121104000BE
:1014A00000000E40790B400004040A0A810B400042
:1014B0000A001600890B4000910B4000A80800208C
:1014C000D50340000D074000790340002D06400081
:1014D000F1094000F9054000E906400038B51D203B
:1014E000124B9847124C20461249134A4FF480235E
:1014F000124DA847204601214FF440120B46104DD3
:10150000A847204600210A460E4B98472046052151
:101510000D4B98474FF000520C4B1A6020460C4B75
:101520009847204620210B4B984738BD211040009A
:1015300000800340000E270700A861002901400039
:101540006D0140005D0140009501400000E100E0B8
:101550008D014000AD01400010B51E200B4B984797
:101560000B4C20460B4B9847204600210A4B9847CE
:1015700020460121094B984720460121084B9847F6
:1015800020464FF48571074B984710BD211040004D
:1015900000C00340B5014000BD014000ED01400026
:1015A000050240001902400000B583B01B4B98476C
:1015B0001B4B98471B4B98471B4B984717201B4BBF
:1015C00098471B4C2046002144F20402194B9847CF
:1015D000204600212022184B984720460021102247
:1015E000164B98474FF40002154B1A602046002115
:1015F000144B9847144B98476422144B1A60144AB2
:10160000144B1A60144A154B1A60154B00930020B6
:10161000DB21EF226323134CA047FEE75D0240006D
:10162000C10240001D144000591540002110400027
:101630000000014021024000450240004D024000F0
:1016400000E100E03D024000DD1440009808002069
:10165000FDAD803DC00800200000B03FA408002080
:101660000C394000B50A400030B5224A21F0004351
:10167000934287B01BDD204A934205DD02460B46AC
:1016800001F060F907B030BD02AA00F039F800F0AF
:10169000030001281ED0022811D010B3DDE9020199
:1016A000DDE9042300F050FA01F10041EAE70023EC
:1016B00000930022002300F06FFF07B030BD01242B
:1016C000DDE90201DDE90423009400F065FF01F18A
:1016D0000041D7E7DDE90201DDE9042300F034FA37
:1016E000D0E70124DDE90201DDE90423009400F0E4
:1016F00053FFC7E7FB21E93FFFFFEF7F000000003A
:101700002DE9F04F964E21F0004BB3458FB00C46BB
:1017100040F381809246934A934526DC002986A3B4
:10172000D3E9002340F3A88101F00CF98E4B9B45CF
:1017300004460D4600F0848081A3D3E9002301F024
:1017400001F902460B46CAE900232046294601F06A
:10175000F9F87BA3D3E9002301F0F4F80125CAE9E5
:10176000020128460FB0BDE8F08F804A934540F350
:1017700084807F4A934559DC4FEA2B55A5F21645E4
:10178000ABEB05573946064601F02AFD01F028FA71
:101790008046894602460B4630463946CDE90889DF
:1017A00001F0D0F80022734B01F080FA0F46064694
:1017B00001F016FD01F014FA02460B4680468946F8
:1017C00030463946CDE90A8901F0BCF80022694B60
:1017D00001F06CFA00220023CDE90C0101F0CEFCEF
:1017E000002800F07581002340464946002201F0A0
:1017F000C5FC002814BF0123022302225E49009287
:1018000001912A4608A8514600F0C2FA002CC0F205
:101810005181054606E0C2E9000100250024C2E925
:101820000245002528460FB0BDE8F08F02460B4662
:1018300001F088F80025CAE90201CAE90001F1E7D0
:1018400041A3D3E9002301F07DF841A3D3E90023AC
:101850000D46044601F076F802460B46CAE900231D
:101860002946204601F06EF839A3D3E9002301F0A0
:1018700069F80125CAE90201D4E700F043FF36A365
:10188000D3E9002306460F4601F010FA00223B4B35
:1018900001F05AF801F0A4FC054601F0A1F926A3D5
:1018A000D3E90023CDE9040101F000FA02460B461A
:1018B0003046394601F046F821A3D3E9002380469B
:1018C0008946DDE9040101F0F1F91F2DCDE902019E
:1018D0004046494656DC2A4B6A1E53F822305B4587
:1018E00050D0DDE9022301F02DF802460B46CAE98B
:1018F000002307460E463A4633464046494601F025
:1019000021F8DDE9022301F01DF8002C02460B4608
:10191000CAE9022386DA06F1004601F10041CAF85D
:101920000070CAF80460CAF80C10CAF808006D42CA
:1019300078E700BFAFF3008000004054FB21F93F7F
:101940003163621A61B4D03D0000601A61B4D03DC9
:101950007370032E8A19A33B83C8C96D305FE43FBF
:10196000FB21E93F7BD90240FB21F93FFB213941B3
:10197000FFFFEF7F000070418CB041000000E03FAE
:101980000CB04100DDE9022300F0DCFF0E464FEA17
:101990002B5BC6F30A53C3EB0B03102B0746CAE9B4
:1019A0000001A8DD5CA3D3E90023DDE9040101F017
:1019B0007DF906460F4632463B464046494600F012
:1019C000C1FFCDE90601DDE906234046494600F0A6
:1019D000B9FF32463B4600F0B5FF51A3D3E90023DF
:1019E00006460F46DDE9040101F060F932463B4648
:1019F00000F0A8FFCDE90201DDE90223DDE90601DF
:101A000000F0A0FF0E46C1F30A51C1EB0B0B0246DA
:101A10003346BBF1310F0746CAE9002378DD42A304
:101A2000D3E90023DDE9040101F040F906460F4641
:101A300032463B46DDE9060100F084FF80468946D8
:101A400042464B46DDE9060100F07CFF32463B464C
:101A500000F078FF36A3D3E9002306460F46DDE900
:101A6000040101F023F932463B4600F06BFFCDE95B
:101A700002014046494634E700F066FF304B9B4583
:101A800004460D4626D02CA3D3E9002300F05CFFCA
:101A900002460B46CAE900232946204600F052FFC1
:101AA00025A3D3E9002300F04FFF4FF0FF35CAE92B
:101AB0000201B7E6DAF80420DAF80C3002F100424D
:101AC00003F100434542CAF80420CAF80C30A9E6E5
:101AD000032392E610A3D3E9002300F035FF10A3FF
:101AE000D3E900230D46044600F02EFF02460B46C4
:101AF000CAE900232946204600F024FF08A3D3E9C1
:101B0000002300F021FF4FF0FF35CAE9020189E60A
:101B1000DDE90689EFE600BF0000601A61B4D03D40
:101B20007370032E8A19A33B0000002E8A19A33B71
:101B3000C14920259A837B393163621A61B4D03D53
:101B4000FB21F93F000000002DE9F04F21F0004794
:101B5000B7F1795F85B00C4692469B4605466BDA35
:101B600001F03EFB002800F0E8802A462346284684
:101B7000214601F09BF874A3D3E9002380468946EF
:101B800001F094F872A3D3E9002300F0DDFE424691
:101B90004B4601F08BF870A3D3E9002300F0D2FE8E
:101BA00042464B4601F082F86DA3D3E9002300F0D2
:101BB000CBFE42464B4601F079F86BA3D3E90023F4
:101BC00000F0C0FE42464B4601F070F868A3D3E92E
:101BD000002300F0B9FE42464B4601F067F8CDE91C
:101BE0000001404649460022634B01F05FF8DDE901
:101BF000002306460F464046494601F057F8524634
:101C0000804689465B462846214601F04FF8024649
:101C10000B464046494600F095FE02460B463046CC
:101C2000394600F08FFE02460B460020534900F073
:101C300089FE05B0BDE8F08F02460B4601F036F88C
:101C400041A3D3E900238046894601F02FF840A341
:101C5000D3E9002300F078FE42464B4601F026F817
:101C60003DA3D3E9002300F06DFE42464B4601F050
:101C70001DF83BA3D3E9002300F066FE42464B4625
:101C800001F014F838A3D3E9002300F05BFE4246CC
:101C90004B4601F00BF836A3D3E9002300F054FEC5
:101CA0004B46424601F002F8354B9F42CDE9000118
:101CB00097DD344B9F424FF0000238DCA7F500134C
:101CC00000202E4916461F4600F03CFECDE90201D9
:101CD000404649460022284B00F0E8FF32463B468A
:101CE00000F030FEDDE9002306460F464046494637
:101CF00000F0DCFF5246804689465B462846214676
:101D000000F0D4FF02460B464046494600F01AFE5A
:101D100002460B463046394600F014FE02460B469A
:101D2000DDE9020100F00EFE05B0BDE8F08F164BB4
:101D3000164FCDE902230026CAE71049002005B05E
:101D4000BDE8F08FAFF30080D43888BEE9FAA8BDB3
:101D5000C4B1B4BD9EEE213EAD529C804F7E923EFA
:101D60009015CB19A001FA3E7751C1166CC1563FB0
:101D70004C5555555555A53F0000E03F0000F03F3C
:101D80003233D33F0000E93F0000E73F0000D23F7D
:101D90002DE9F04FADF51D7D7B4CA69E7B4D54F893
:101DA000264009942646D41E85FB0475E417C4EB2F
:101DB000A50424EAE4741D460C93E34303EB4303B8
:101DC000013D02EBC30308932B460D940395651B5D
:101DD0009C1904900A9116D42C44013422AEA79F7A
:101DE00008E057F8250000F0FBFE0135A542E6E9C2
:101DF000020108D0002DF4DA013500200021A542AF
:101E0000E6E90201F6D1099B002B31DB099A0C9B14
:101E100074A901EBC20BC3EB4373039A24A9DB0043
:101E200001EBC20800930DF5E479039B002BC0F28F
:101E30009981049BA3F1080A009B444608EB030523
:101E400000260027FAE9022374E8020100F02EFFC1
:101E500002460B463046394600F076FDAC42064657
:101E60000F46EFD1E9E90267D94508F10808DCD14E
:101E7000099901F18043013B9B001A1D10A80244FF
:101E800003440F920E938B464FEACB039CA91A464C
:101E90000693BBF1000F0B4453E9284528DD0DF5EF
:101EA000E87A0AEB02060FAF0022394B204629469A
:101EB00000F0FCFE01F094F900F092FE0022354B98
:101EC0008046894600F0F2FE02460B46204629462F
:101ED00000F038FD01F084F976E9022347F8040F99
:101EE0004946404600F030FD564504460D46DBD1DC
:101EF000DDF82090204629464A4600F095FC002255
:101F00004FF07F5304460D4600F0D0FE00F000FC79
:101F10000022214B00F0CAFE02460B46204629460D
:101F200000F010FD04460D4601F05AF9804600F01D
:101F300057FE02460B462046294600F003FD4C465C
:101F4000002C06460F4640F3F3800BF1FF3110AB37
:101F5000C9F1180253F8213043FA02F000FA02F5F1
:101F600010AA5D1BC9F1170342F8215080441D419E
:101F7000002D3EDDBBF1000F08F1010840F38A821D
:101F8000002214460FA911E094B14100ABAAAA2A7D
:101F90000000703E0000704100002040C3F18070DE
:101FA0000BB108600124013293450DDD51F8043F67
:101FB000002CF3D0C3F1FF13013203F57F439345A7
:101FC0000B604FF00104F1DC089B002B0EDD012BB0
:101FD00000F0B680022B09D10BF1FF3210AB10A933
:101FE00053F82230C3F3150341F82230022D00F0DC
:101FF0008680304639460022002301F0BFF80028D1
:1020000000F0CC80099B0BF1FF3A53450DDC10AB7F
:102010000F9803EB8B03002253F8041D834242EA1E
:102020000102F9D1002A40F01B82099B10AA013B52
:1020300052F82330002B40F02B820E9A012352F8E5
:10204000041D01330029FAD05B441A460B930BF1AF
:10205000010393424DDC0D9A03EB02090B9A0C9B92
:1020600009F180495B44CBEB020BA79A09F1FF39D8
:1020700002EB890200924FEACB02DB00059224AA10
:1020800002EB030B0793069B74AA02EB030A4FF0C3
:102090000008009B53F8040F009300F0A1FD039B80
:1020A000002BEBE8020127DB079B03EB0804069BF0
:1020B00008EB030524AB1C441D44049B0026A3F13C
:1020C00008090027F9E9022374E8020100F0EEFD97
:1020D00002460B463046394600F036FCAC42064616
:1020E0000F46EFD1059B08F108089845EAE9026719
:1020F000CFD1DDF82CB0C7E600260027F2E7324644
:102100003B460020C04900F01DFC06460F46002C4F
:102110003FF46FAF089ABC49002000F085FB0246EF
:102120000B463046394600F00DFC06460F4660E788
:1021300011D10BF1FF3310AA52F82350ED1517E718
:102140000BF1FF3210AB10A953F82230C3F3160382
:1021500041F822304AE70022AC4B01F02DF858B983
:10216000054646E700260027E9E90267D94508F158
:1021700008087FF45AAE7BE6BBF1000F08F10108B6
:10218000C8BF02253FF7FCAE32463B4600209E49C1
:1021900000F0D8FB022506460F462AE7089B039568
:1021A0005A4230463946CDF8148000F03DFB0022FB
:1021B000974B04460D4600F0FFFF002800F0E38136
:1021C0000022944B2046294600F070FD01F008F8EB
:1021D000064600F005FD00228D4B00F067FD0B4622
:1021E00002462946204600F0ADFB00F0F9FF089BAF
:1021F00018330BF1010A089310AB43F82B0043F896
:102200002A60089A8049002000F00EFBBAF1000F06
:1022100004460D46C0F2CD800AF101034FEAC3081F
:1022200074AF10AA009302EB830907EB080659F874
:10223000040D00F0D5FC22462B4600F037FD0022AD
:1022400066E90201734B2046294600F02FFDBE428D
:1022500004460D46EBD1A8F1080806EB08030DF57E
:102260009879CDF818A0DDF824A0CDF810904FF0A3
:1022700000089B46BAF1000FC0F29880B8F1000F39
:10228000C0F29480DFF890915D460026002700247C
:1022900001E0444510DCF9E90223F5E8020100F011
:1022A00005FD02460B463046394600F04DFB013431
:1022B000A24506460F46ECDA049B03EBC803C3E9CC
:1022C0000067009B08F101089845ABF1080BD1D1DC
:1022D000A69BDDF818A0DDF81090032B3DD8DFE8B1
:1022E00013F0430004000400DB00009B002409EB12
:1022F000C30625462046294676E9022300F024FB42
:102300004E4504460D46F5D1039B002B00F08E8010
:102310000A982B4605F10045224680E83000D9E9AD
:10232000000100F00FFBBAF1000F02460B460DDD75
:10233000012410461946F9E9022300F005FB013497
:10234000A24502460B46F4DA039909B103F10043B2
:1023500019460A9B1046C3E90201059B03F00700DA
:102360000DF51D7DBDE8F08F009B002209EBC30930
:1023700013461046194679E9022300F0E5FA0AF1FE
:10238000FF3ABAF1FF3F02460B46F2D1039909B179
:1023900003F1004319460A9B1046C3E90001059B5F
:1023A00003F007000DF51D7DBDE8F08F0026002726
:1023B00082E7A69B032BD0D8DFE803F04F30300232
:1023C0000DF59879039B00273E46002B00F0C7804F
:1023D000D9F80C300A9DD9F80400D9F80020D9F8B2
:1023E00008102F6103F10043EB60059B2A6000F1A8
:1023F000004006F10046686003F007006E61A960C6
:102400000DF51D7DBDE8F08F0000F03F0000E03FBE
:10241000000070410000703EA0B14100039B002409
:1024200025460DF59879002B7FF472AF20462246A1
:102430000A9C29462B46C4E90001D9E9000100F0B5
:1024400081FABAF1000F02460B463FF771AF194609
:102450000A9B1046C3E902017FE70022134695E775
:1024600010AB089A53F82A300395183ACDF8148027
:102470000892002B7FF4C5AE10AB03EB8A0353F830
:10248000041D0AF1FF3A183A0029F8D00892B8E67C
:102490000123D9E5002497E5BAF1000F92DD4FEA58
:1024A000CA0809EB080BDBE900677BE90223304629
:1024B0003946CDE9002300F047FA04460D4622468E
:1024C0002B46DDE9000100F03DFA02460B4630469E
:1024D000394600F039FACB4526462F46CBE90201B2
:1024E000CBE90045E1D1BAF1010F7FF76BAF09EB02
:1024F000080ADAE900670DF59C7B7AE902231046A9
:10250000194632463B46CDE9000100F01DFA04466B
:102510000D4622462B46DDE9000100F013FA324653
:102520003B4600F011FADA4526462F46CAE9020179
:10253000CAE90045E1D108F1080400274C443E46B1
:1025400050AD3846314674E9022300F0FDF9AC4243
:1025500007460E46F5D1039B002B7FF439AFD9E92E
:1025600000233C460A9FD9E90201C7E90023059BE5
:102570003546C7E9020103F00700C7E904450DF538
:102580001D7DBDE8F08F2046294600F029FE10ABE6
:10259000DA4643F82B0034E62DE9F04F21F00046EF
:1025A000B6F1795F85B00C4690469946054604DA47
:1025B00000F016FE002800F083802A4623462846B5
:1025C000214600F073FB2A46234606460F4600F0DC
:1025D0006DFB3FA3D3E9002382468B463046394644
:1025E00000F064FB3CA3D3E9002300F0ABF93246D2
:1025F0003B4600F05BFB3AA3D3E9002300F0A4F9CB
:1026000032463B4600F052FB37A3D3E9002300F0EB
:1026100099F932463B4600F049FB35A3D3E9002344
:1026200000F092F90E9BCDE900019BB3404649466C
:102630000022334B00F03AFBDDE90023CDE9020133
:102640005046594600F032FB02460B46DDE90201D6
:1026500000F078F932463B4600F028FB42464B46F4
:1026600000F070F924A3D3E9002306460F46504634
:10267000594600F01BFB02460B463046394600F037
:1026800063F902460B462846214600F05BF905B087
:10269000BDE8F08FDDE900233046394600F006FB47
:1026A00015A3D3E9002300F04DF952465B4600F034
:1026B000FDFA2A46234600F047F905B0BDE8F08F41
:1026C0002846214605B0BDE8F08F00BFAFF300807B
:1026D0007CD5CF5A3AD9E53DEB9C2B8AE6E55A3EAC
:1026E0007DFEB157E31DC73ED561C119A0012A3F48
:1026F000A6F810111111813F495555555555C53F43
:102700000000E03F21F00041704700BF00000000E2
:102710002DE9F047C1F30A58A8F2FF36132E0B46F5
:102720000D4604460246894607461DDC002E40DB66
:10273000DFF8F08048FA06F808EA010E5EEA0202C5
:1027400017D035A3D3E9002300F0FEF800220023C0
:1027500000F03CFD20B1002D40DB29EA08050027F0
:1027600038462946BDE8F087332E06DDB6F5806F82
:102770002FD020461946BDE8F087A8F213424FF04B
:10278000FF3A2AFA02FA1AEA000FF2D022A3D3E99A
:10279000002300F0D9F80022002300F017FD0028E4
:1027A000DED0002D1FDB4D4627EA0A0738462946B2
:1027B000D8E719A3D3E9002300F0C6F800220023CC
:1027C00000F004FD0028CBD0002D1ADB00273D4689
:1027D000C6E702460B4600F0B7F8CCE74FF480138B
:1027E00033419944B9E7142E08D0C8F5866808F13A
:1027F0000308012303FA08F31F19D4D309F10109CF
:10280000D1E725F00042064B224318BF1D460027A2
:10281000A6E700BFAFF300809C7500883CE4377EDC
:102820000000F0BFFFFF0F00F8B5C1F30A560446E1
:102830000D460B46174616BB21F00043034332D02A
:102840000022374B00F032FA364A974204460D46D2
:102850000B4637DBC1F30A56363E3E4440F2FE7269
:10286000964215DD22462B4629A1D1E9000100F050
:102870005DF827A3D3E9002300F018FAF8BD40F271
:10288000FF72964224D03E4440F2FE729642E9DC4A
:10289000002E09DD23F0FF4323F4E00343EA06554D
:1028A00020462946F8BDF8BD16F1350F15DA4CF271
:1028B00050339F4222462B461DDC17A1D1E900016F
:1028C00000F034F814A3D3E9002300F0EFF9F8BDC9
:1028D00002460B4600F038F8F8BD23F0FF4323F41E
:1028E000E003363643EA06552046294600220E4BC1
:1028F00000F0DCF9F8BD06A1D1E9000100F016F8FE
:1029000003A3D3E9002300F0D1F9F8BDAFF30080B1
:102910009C7500883CE4377E59F3F8C21F6EA50110
:1029200000005043B03CFFFF0000903C03F0004328
:1029300021F0004243EA0201704700BF81F00041EC
:1029400002E000BF83F0004330B54FEA41044FEA94
:10295000430594EA050F08BF90EA020F1FBF54EA2F
:10296000000C55EA020C7FEA645C7FEA655C00F0CB
:10297000E2804FEA5454D4EB5555B8BF6D420CDD9C
:102980002C4480EA020281EA030382EA000083EA1F
:10299000010180EA020281EA0303362D88BF30BDBF
:1029A00011F0004F4FEA01314FF4801C4CEA113115
:1029B00002D0404261EB410113F0004F4FEA033374
:1029C0004CEA133302D0524263EB430394EA050FFF
:1029D00000F0A780A4F10104D5F1200E0DDB02FA6E
:1029E0000EFC22FA05F2801841F1000103FA0EF202
:1029F000801843FA05F359410EE0A5F120050EF1C8
:102A0000200E012A03FA0EFC28BF4CF0020C43FAF8
:102A100005F3C01851EBE37101F0004507D54FF005
:102A2000000EDCF1000C7EEB00006EEB0101B1F555
:102A3000801F1BD3B1F5001F0CD349085FEA30009B
:102A40004FEA3C0C04F101044FEA445212F5800FA6
:102A500080F09A80BCF1004F08BF5FEA500C50F143
:102A6000000041EB045141EA050130BD5FEA4C0C26
:102A7000404141EB010111F4801FA4F10104E9D1AF
:102A800091F0000F04BF01460020B1FA81F308BFA6
:102A90002033A3F10B03B3F120020CDA0C3208DD72
:102AA00002F1140CC2F10C0201FA0CF021FA02F14D
:102AB0000CE002F11402D8BFC2F1200C01FA02F1BD
:102AC00020FA0CFCDCBF41EA0C019040E41AA2BFE2
:102AD00001EB0451294330BD6FEA04041F3C1CDAAA
:102AE0000C340EDC04F11404C4F1200220FA04F0CA
:102AF00001FA02F340EA030021FA04F345EA030174
:102B000030BDC4F10C04C4F1200220FA02F001FA35
:102B100004F340EA0300294630BD21FA04F02946B7
:102B200030BD94F0000F83F4801306BF81F4801150
:102B30000134013D4EE77FEA645C18BF7FEA655CC3
:102B400029D094EA050F08BF90EA020F05D054EA95
:102B5000000C04BF1946104630BD91EA030F1EBF9A
:102B60000021002030BD5FEA545C05D1400049419E
:102B700028BF41F0004130BD14F580043CBF01F591
:102B8000801130BD01F0004545F0FE4141F4700177
:102B90004FF0000030BD7FEA645C1ABF1946104652
:102BA0007FEA655C1CBF0B46024650EA013406BF53
:102BB00052EA033591EA030F41F4002130BD00BF12
:102BC00090F0000F04BF0021704730B54FF48064CF
:102BD00004F132044FF000054FF0000150E700BF50
:102BE00090F0000F04BF0021704730B54FF48064AF
:102BF00004F1320410F0004548BF40424FF000019C
:102C00003EE700BF42004FEAE2014FEA31014FEADE
:102C100002701FBF12F07F4393F07F4F81F060512D
:102C2000704792F0000F14BF93F07F4F704730B59C
:102C30004FF4607401F0004521F0004120E700BF2F
:102C400050EA010208BF704730B54FF000050AE0B6
:102C500050EA010208BF704730B511F0004502D5B7
:102C6000404261EB41014FF4806404F132045FEAB9
:102C7000915C3FF4DCAE4FF003025FEADC0C18BF5E
:102C800003325FEADC0C18BF033202EBDC02C2F154
:102C9000200300FA03FC20FA02F001FA03FE40EAE6
:102CA0000E0021FA02F11444C1E600BF70B54FF0E6
:102CB000FF0C4CF4E06C1CEA11541DBF1CEA1355C8
:102CC00094EA0C0F95EA0C0F00F0DEF82C4481EA30
:102CD000030621EA4C5123EA4C5350EA013518BF50
:102CE00052EA033541F4801143F4801338D0A0FB3D
:102CF00002CE4FF00005E1FB02E506F00042E0FBEA
:102D000003E54FF00006E1FB03569CF0000F18BFEF
:102D10004EF0010EA4F1FF04B6F5007F64F5407497
:102D200004D25FEA4E0E6D4146EB060642EAC6212A
:102D300041EA55514FEAC52040EA5E504FEACE2E97
:102D4000B4F1FD0C88BFBCF5E06F1ED8BEF1004F9A
:102D500008BF5FEA500E50F1000041EB045170BD16
:102D600006F0004646EA010140EA020081EA03015A
:102D7000B4EB5C04C2BFD4EB0C0541EA045170BD56
:102D800041F480114FF0000E013C00F3AB8014F1D0
:102D9000360FDEBF002001F0004170BDC4F1000419
:102DA000203C35DA0C341BDC04F11404C4F120059A
:102DB00000FA05F320FA04F001FA05F240EA0200F5
:102DC00001F0004221F0004110EBD37021FA04F62B
:102DD00042EB06015EEA430E08BF20EAD37070BDE5
:102DE000C4F10C04C4F1200500FA04F320FA05F044
:102DF00001FA04F240EA020001F0004110EBD37046
:102E000041F100015EEA430E08BF20EAD37070BDB5
:102E1000C4F1200500FA05F24EEA020E20FA04F38E
:102E200001FA05F243EA020321FA04F001F000413D
:102E300021FA04F220EA020000EBD3705EEA430EAE
:102E400008BF20EAD37070BD94F0000F0FD101F0DD
:102E50000046400041EB010111F4801F08BF013C16
:102E6000F7D041EA060195F0000F18BF704703F054
:102E70000046520043EB030313F4801F08BF013DDB
:102E8000F7D043EA0603704794EA0C0F0CEA135597
:102E900018BF95EA0C0F0CD050EA410618BF52EA51
:102EA0004306D1D181EA030101F000414FF0000057
:102EB00070BD50EA410606BF1046194652EA430665
:102EC00019D094EA0C0F02D150EA013613D195EAD9
:102ED0000C0F05D152EA03361CBF104619460AD121
:102EE00081EA030101F0004141F0FE4141F470012B
:102EF0004FF0000070BD41F0FE4141F4780170BD1B
:102F000070B54FF0FF0C4CF4E06C1CEA11541DBF7F
:102F10001CEA135594EA0C0F95EA0C0F00F0A7F881
:102F2000A4EB050481EA030E52EA03354FEA0131AE
:102F300000F088804FEA03334FF0805545EA1313C1
:102F400043EA12634FEA022245EA111545EA106589
:102F50004FEA00260EF000419D4208BF964244F120
:102F6000FD0404F5407402D25B084FEA3202B61A3F
:102F700065EB03055B084FEA32024FF480104FF413
:102F8000002CB6EB020E75EB030E22BFB61A754687
:102F900040EA0C005B084FEA3202B6EB020E75EB1A
:102FA000030E22BFB61A754640EA5C005B084FEA82
:102FB0003202B6EB020E75EB030E22BFB61A75464F
:102FC00040EA9C005B084FEA3202B6EB020E75EB5A
:102FD000030E22BFB61A754640EADC0055EA060E1B
:102FE00018D04FEA051545EA16754FEA06164FEA5E
:102FF000C30343EA52734FEAC2025FEA1C1CC0D10A
:1030000011F4801F0BD141EA00014FF000004FF096
:10301000004CB6E711F4801F04BF01430020B4F157
:10302000FD0C88BFBCF5E06F3FF6AFAEB5EB030C0F
:1030300004BFB6EB020C5FEA500C50F1000041EB0C
:10304000045170BD0EF0004E4EEA113114EB5C04D9
:10305000C2BFD4EB0C0541EA045170BD41F48011AC
:103060004FF0000E013C90E645EA060E8DE60CEAB4
:10307000135594EA0C0F08BF95EA0C0F3FF43BAFD1
:1030800094EA0C0F0AD150EA01347FF434AF95EA88
:103090000C0F7FF425AF104619462CE795EA0C0F6C
:1030A00006D152EA03353FF4FDAE1046194622E739
:1030B00050EA410618BF52EA43067FF4C5AE50EA13
:1030C00041047FF40DAF52EA43057FF4EBAE12E703
:1030D0004FF0FF3C06E000BF4FF0010C02E000BFE4
:1030E0004FF0010C4DF804CD4FEA410C7FEA6C5CC7
:1030F0004FEA430C18BF7FEA6C5C1BD001B050EA6A
:10310000410C0CBF52EA430C91EA030F02BF90EA54
:10311000020F0020704710F1000F91EA030F58BF13
:10312000994208BF90422CBFD8176FEAE37040F075
:10313000010070474FEA410C7FEA6C5C02D150EA13
:10314000013C07D14FEA430C7FEA6C5CD6D152EACE
:10315000033CD3D05DF8040B704700BF8446104693
:1031600062468C461946634600E000BF01B5FFF792
:10317000B7FF002848BF10F1000F01BD4DF808ED62
:10318000FFF7F4FF0CBF012000205DF808FB00BF33
:103190004DF808EDFFF7EAFF34BF012000205DF88D
:1031A00008FB00BF4DF808EDFFF7E0FF94BF0120DA
:1031B00000205DF808FB00BF4DF808EDFFF7CEFFDB
:1031C00094BF012000205DF808FB00BF4DF808ED1A
:1031D000FFF7C4FF34BF012000205DF808FB00BFEB
:1031E0004FEA410212F5001215D211D56FF478732F
:1031F000B3EB625212D94FEAC12343F0004343EAD2
:10320000505311F0004F23FA02F018BF40427047AC
:103210004FF00000704750EA013005D111F0004036
:1032200008BF6FF0004070474FF00000704700BFCC
:103230004FEA4102B2F1E04324BFB3F5001CDCF1D8
:10324000FE5C0DD901F0004C4FEAC0024CEA507010
:10325000B2F1004F40EB830008BF20F0010070473F
:1032600011F0804F21D113F13872BCBF01F0004042
:10327000704741F480114FEA5252C2F11802C2F174
:10328000200C10FA0CF320FA02F018BF40F00100F5
:103290004FEAC1234FEAD32303FA0CFC40EA0C00A7
:1032A00023FA02F34FEA4303CCE77FEA625307D1E4
:1032B00050EA01331EBF4FF0FE4040F4400070471B
:1032C00001F0004040F0FE4040F40000704700BFB5
:1032D00080F0004002E000BF81F0004142001FBFCB
:1032E0005FEA410392EA030F7FEA226C7FEA236CD4
:1032F0006AD04FEA1262D2EB1363C1BFD2184140C9
:1033000048404140B8BF5B42192B88BF704710F05E
:10331000004F40F4000020F07F4018BF404211F001
:10332000004F41F4000121F07F4118BF494292EA69
:10333000030F3FD0A2F1010241FA03FC10EB0C0095
:10334000C3F1200301FA03F100F0004302D5494222
:1033500060EB4000B0F5000F13D3B0F1807F06D3CF
:1033600040084FEA310102F10102FE2A51D2B1F1C7
:10337000004F40EBC25008BF20F0010040EA0300BC
:103380007047490040EB000010F4000FA2F1010269
:10339000EDD1B0FA80FCACF1080CB2EB0C0200FAF3
:1033A0000CF0AABF00EBC25052421843BCBFD04041
:1033B0001843704792F0000F81F4000106BF80F4BB
:1033C00000000132013BB5E74FEA41037FEA226C7E
:1033D00018BF7FEA236C21D092EA030F04D092F049
:1033E000000F08BF0846704790EA010F1CBF00207D
:1033F000704712F07F4F04D1400028BF40F00040DA
:10340000704712F100723CBF00F50000704700F0F9
:10341000004343F0FE4040F4000070477FEA226220
:1034200016BF08467FEA23630146420206BF5FEAF1
:10343000412390EA010F40F4800070474FF00003F1
:1034400004E000BF10F0004348BF40425FEA000CB8
:1034500008BF704743F0964301464FF000001CE060
:1034600050EA010208BF70474FF000030AE000BFB6
:1034700050EA010208BF704711F0004302D54042F4
:1034800061EB41015FEA010C02BF84460146002066
:1034900043F0B64308BFA3F18053A3F50003BCFA81
:1034A0008CF2083AA3EBC25310DB01FA02FC63442E
:1034B00000FA02FCC2F12002BCF1004F20FA02F235
:1034C00043EB020008BF20F00100704702F1200228
:1034D00001FA02FCC2F1200250EA4C0021FA02F289
:1034E00043EB020008BF20EADC7070474FF0FF0C8E
:1034F0001CEAD0521EBF1CEAD15392EA0C0F93EA89
:103500000C0F6FD01A4480EA010C400218BF5FEA2A
:1035100041211ED04FF0006343EA501043EA51119D
:10352000A0FB01310CF00040B1F5000F3EBF490097
:1035300041EAD3715B0040EA010062F17F02FD2A9B
:103540001DD8B3F1004F40EBC25008BF20F001007E
:10355000704790F0000F0CF0004C08BF49024CEA95
:10356000502040EA51207F3AC2BFD2F1FF0340EA27
:10357000C250704740F400004FF00003013A5DDC98
:1035800012F1190FDCBF00F000407047C2F10002D9
:10359000410021FA02F1C2F1200200FA02FC5FEAC6
:1035A000310040F1000053EA4C0308BF20EADC7010
:1035B000704792F0000F00F0004C02BF400010F482
:1035C000000F013AF9D040EA0C0093F0000F01F02F
:1035D000004C02BF490011F4000F013BF9D041EA51
:1035E0000C018FE70CEAD15392EA0C0F18BF93EA53
:1035F0000C0F0AD030F0004C18BF31F0004CD8D17D
:1036000080EA010000F00040704790F0000F17BF03
:1036100090F0004F084691F0000F91F0004F14D049
:1036200092EA0C0F01D142020FD193EA0C0F03D1A1
:103630004B0218BF084608D180EA010000F00040A4
:1036400040F0FE4040F40000704740F0FE4040F47F
:10365000400070474FF0FF0C1CEAD0521EBF1CEA1E
:10366000D15392EA0C0F93EA0C0F69D0A2EB03023C
:1036700080EA010C49024FEA402037D04FF08053D6
:1036800043EA111143EA10130CF000408B4238BF9B
:103690005B0042F17D024FF4000C8B4224BF5B1AA9
:1036A00040EA0C00B3EB510F24BFA3EB510340EAF7
:1036B0005C00B3EB910F24BFA3EB910340EA9C00A5
:1036C000B3EBD10F24BFA3EBD10340EADC001B0115
:1036D00018BF5FEA1C1CE0D1FD2A3FF650AF8B42B9
:1036E00040EBC25008BF20F0010070470CF0004CC6
:1036F0004CEA50207F32C2BFD2F1FF0340EAC250F1
:10370000704740F400004FF00003013A37E792F0B1
:10371000000F00F0004C02BF400010F4000F013A0F
:10372000F9D040EA0C0093F0000F01F0004C02BF0A
:10373000490011F4000F013BF9D041EA0C0195E773
:103740000CEAD15392EA0C0F08D142027FF47DAF0C
:1037500093EA0C0F7FF470AF084676E793EA0C0FFC
:1037600004D14B023FF44CAF08466EE730F0004CFA
:1037700018BF31F0004CCAD130F000427FF45CAF8A
:1037800031F000437FF43CAF5FE700BF42000ED250
:10379000B2F1FE4F0BD34FF09E03B3EB126209D48C
:1037A0004FEA002343F0004323FA02F070474FF042
:1037B0000000704712F1610F01D1420202D14FF0B7
:1037C000FF3070474FF00000704700BF70B50F4EDC
:1037D0000F4D761BB61018BF002405D0013455F8E4
:1037E000043B9847A642F9D10A4E0B4D761B17F0C1
:1037F000FFFCB61018BF002406D0013455F8043B76
:103800009847A642F9D170BD70BD00BFFCB1410020
:10381000FCB1410004B24100FCB14100024B13B1C4
:10382000024800F005B87047000000003D38400035
:10383000014600200246034600F016B838B5084B92
:10384000084DED1AAC1018BFED1805D0013C55F825
:10385000043D9847002CF9D1BDE8384017F0D2BCA0
:1038600010B2410014B241002DE9F047254C256803
:10387000D5F848410646884692469946CCB36068DA
:103880001F2818DC431C7EB104EB80050121C5F81C
:1038900088A0D4F8887101FA00F21743022EC4F808
:1038A0008871C5F808911ED00230636044F820800A
:1038B0000020BDE8F087144B03B34FF4C870AFF39A
:1038C00000800446D0B1D5F84831002780E8880050
:1038D000C5F8484138460123C4F88871C4F88C7192
:1038E000002EE1D0D0E7D4F88C110A43C4F88C2123
:1038F000DAE705F5A674C5F84841C0E74FF0FF3098
:10390000BDE8F087ECB1410000000000FFFFFF00C0
:10391000FFFFFF00FFFFFF00FFFFFF00FFFFFF00B3
:10392000FFFFFF00FFFFFF00FFFFFF00FFFFFF00A3
:10393000FFFFFF00FFFFFF00FFFFFF00FFFFFF0093
:10394000FFFFFF00FFFFFF00FFFFFF00FFFFFF0083
:10570000FFFFFF00FFFFFF00FFFFFF0087450000D6
:105710008745000087450000874500008745000059
:105720008745000087450000874500008745000049
:105730008745000087450000874500008745000039
:105740008745000087450000874500008745000029
:105750008745000087450000874500008745000019
:105760008745000087450000874500008745000009
:1057700087450000874500008745000087450000F9
:1057800087450000874500008745000087450000E9
:1057900087450000874500008745000092571900A3
:1057A000A4723E00AB7D4E00B0855900B78E6600F6
:1057B000BE997500B9936C00B58B6100AF8355003D
:1057C000A67745009B652C008A4A070087450000A4
:1057D0008745000087450000874500008745000099
:1057E0008745000087450000874500008745000089
:1057F0008745000087450000874500008745000079
:105800008745000087450000874500008745000068
:105810008745000087450000874500008745000058
:105820008745000087450000874500008745000048
:105830008745000087450000874500008745000038
:105840008745000087450000874500008745000028
:105850008745000087450000C5A58300FFFFFF00C6
:10586000FFFFFF00FFFFFF00FFFFFF00FFFFFF0044
:10587000FFFFFF00FFFFFF00FFFFFF00FFFFFF0034
:10588000FFFFFF00FFFFFF00FFFFFF00FFFFFF0024
:10589000FFFFFF00FFFFFF00FFFFFF00FFFFFF0014
:1058A000FFFFFF00FFFFFF00AC7F4F0087450000B8
:1058B00087450000874500008745000087450000B8
:1058C00087450000874500008745000087450000A8
:1058D0008745000087450000874500008745000098
:1058E0008745000087450000874500008745000088
:105B40008745000087450000975D2200B68D630001
:105B5000D3BAA100E6D7CA00F8F5F100FFFFFF00B5
:105B6000FFFFFF00FFFFFF00FFFFFF00FFFFFF0041
:105B7000FFFFFF00FFFFFF00FFFFFF00FFFFFF0031
:105B8000FFFFFF00FFFFFF00FEFDFC00EFE6DD0072
:105B9000DCCAB600C4A38200A67341008A4A08008A
:105BA00087450000874500008745000087450000C5
:105BB00087450000874500008745000087450000B5
:105BC00087450000874500008745000087450000A5
:105BD0008745000087450000874500008745000095
:105BE0008745000087450000874500008745000085
:105BF0008745000087450000874500008745000075
:105C00008745000087450000874500008745000064
:105C10008745000087450000C5A58300FFFFFF0002
:105C2000FFFFFF00FFFFFF00FFFFFF00FFFFFF0080
:105C3000FFFFFF00FFFFFF00FFFFFF00FFFFFF0070
:105C4000FFFFFF00FFFFFF00FFFFFF00FFFFFF0060
:105C5000FFFFFF00FFFFFF00FFFFFF00FFFFFF0050
:105C6000FFFFFF00FFFFFF00AC7F4F0087450000F4
:105C700087450000874500008745000087450000F4
:105C800087450000874500008745000087450000E4
:105C900087450000874500008745000087450000D4
:105CA00087450000874500008745000087450000C4
:105EF000874500008745000087460200A6734100E1
:105F0000CFB69B00F0E8E000FFFFFF00FFFFFF00BF
:105F1000FFFFFF00FFFFFF00FFFFFF00FFFFFF008D
:105F2000FFFFFF00FFFFFF00FFFFFF00FFFFFF007D
:105F3000FFFFFF00FFFFFF00FFFFFF00FFFFFF006D
:105F4000FFFFFF00FFFFFF00FFFFFF00FFFFFF005D
:105F5000FFFFFF00FFFFFF00FFFFFF00FBF9F7005F
:105F6000DFCFBD00B9956D00905314008745000048
:105F700087450000874500008745000087450000F1
:105F800087450000874500008745000087450000E1
:105F900087450000874500008745000087450000D1
:105FA00087450000874500008745000087450000C1
:105FB00087450000874500008745000087450000B1
:105FC00087450000874500008745000087450000A1
:105FD0008745000087450000C5A58300FFFFFF003F
:105FE000FFFFFF00FFFFFF00FFFFFF00FFFFFF00BD
:105FF000FFFFFF00FFFFFF00FFFFFF00FFFFFF00AD
:10600000FFFFFF00FFFFFF00FFFFFF00FFFFFF009C
:10601000FFFFFF00FFFFFF00FFFFFF00FFFFFF008C
:10602000FFFFFF00FFFFFF00AC7F4F008745000030
:106030008745000087450000874500008745000030
:106040008745000087450000874500008745000020
:106050008745000087450000874500008745000010
:106060008745000087450000874500008745000000
:1062B000965F2300C5A48400F1E9E100FFFFFF0021
:1062C000FFFFFF00FFFFFF00FFFFFF00FFFFFF00DA
:1062D000FFFFFF00FFFFFF00FFFFFF00FFFFFF00CA
:1062E000FFFFFF00FFFFFF00FFFFFF00FFFFFF00BA
:1062F000FFFFFF00FFFFFF00FFFFFF00FFFFFF00AA
:10630000FFFFFF00FFFFFF00FFFFFF00FFFFFF0099
:10631000FFFFFF00FFFFFF00FFFFFF00FFFFFF0089
:10632000FFFFFF00FFFFFF00FDFBFA00D9C6B10031
:10633000AE80520088470300874500008745000073
:10634000874500008745000087450000874500001D
:10635000874500008745000087450000874500000D
:1063600087450000874500008745000087450000FD
:1063700087450000874500008745000087450000ED
:1063800087450000874500008745000087450000DD
:106390008745000087450000C5A58300FFFFFF007B
:1063A000FFFFFF00FFFFFF00FFFFFF00FFFFFF00F9
:1063B000FFFFFF00FFFFFF00FFFFFF00FFFFFF00E9
:1063C000FFFFFF00FFFFFF00FFFFFF00FFFFFF00D9
:1063D000FFFFFF00FFFFFF00FFFFFF00FFFFFF00C9
:1063E000FFFFFF00FFFFFF00AC7F4F00874500006D
:1063F000874500008745000087450000874500006D
:10640000874500008745000087450000874500005C
:10641000874500008745000087450000874500004C
:10642000874500008745000087450000874500003C
:1066600087450000874500009B652C00D3BAA10038
:10667000FDFCFB00FFFFFF00FFFFFF00FFFFFF002F
:10668000FFFFFF00FFFFFF00FFFFFF00FFFFFF0016
:10669000FFFFFF00FFFFFF00FFFFFF00FFFFFF0006
:1066A000FFFFFF00FFFFFF00FFFFFF00FFFFFF00F6
:1066B000FFFFFF00FFFFFF00FFFFFF00FFFFFF00E6
:1066C000FFFFFF00FFFFFF00FFFFFF00FFFFFF00D6
:1066D000FFFFFF00FFFFFF00FFFFFF00FFFFFF00C6
:1066E000FFFFFF00FFFFFF00FFFFFF00FFFFFF00B6
:1066F000FFFFFF00EEE7DE00BA956E008A4A080051
:106700008745000087450000874500008745000059
:106710008745000087450000874500008745000049
:106720008745000087450000874500008745000039
:106730008745000087450000874500008745000029
:106740008745000087450000874500008745000019
:106750008745000087450000C5A58300FFFFFF00B7
:10676000FFFFFF00FFFFFF00FFFFFF00FFFFFF0035
:10677000FFFFFF00FFFFFF00FFFFFF00FFFFFF0025
:10678000FFFFFF00FFFFFF00FFFFFF00FFFFFF0015
:10679000FFFFFF00FFFFFF00FFFFFF00FFFFFF0005
:1067A000FFFFFF00FFFFFF00AC7F4F0087450000A9
:1067B00087450000874500008745000087450000A9
:1067C0008745000087450000874500008745000099
:1067D0008745000087450000874500008745000089
:1067E0008745000087450000874500008745000079
:106A200099622800DAC5B000FFFEFE00FFFFFF00FC
:106A3000FFFFFF00FFFFFF00FFFFFF00FFFFFF0062
:106A4000FFFFFF00FFFFFF00FFFFFF00FFFFFF0052
:106A5000FFFFFF00FFFFFF00FFFFFF00FFFFFF0042
:106A6000FFFFFF00FFFFFF00FFFFFF00FFFFFF0032
:106A7000FFFFFF00FFFFFF00FFFFFF00FFFFFF0022
:106A8000FFFFFF00FFFFFF00FFFFFF00FFFFFF0012
:106A9000FFFFFF00FFFFFF00FFFFFF00FFFFFF0002
:106AA000FFFFFF00FFFFFF00FFFFFF00FFFFFF00F2
:106AB000FFFFFF00FFFFFF00FFFFFF00F1E9E20023
:106AC000B6906700874602008745000087450000B2
:106AD0008745000087450000874500008745000086
:106AE0008745000087450000874500008745000076
:106AF0008745000087450000874500008745000066
:106B00008745000087450000874500008745000055
:106B10008745000087450000C5A58300FFFFFF00F3
:106B2000FFFFFF00FFFFFF00FFFFFF00FFFFFF0071
:106B3000FFFFFF00FFFFFF00FFFFFF00FFFFFF0061
:106B4000FFFFFF00FFFFFF00FFFFFF00FFFFFF0051
:106B5000FFFFFF00FFFFFF00FFFFFF00FFFFFF0041
:106B6000FFFFFF00FFFFFF00AC7F4F0087450000E5
:106B700087450000874500008745000087450000E5
:106B800087450000874500008745000087450000D5
:106B900087450000874500008745000087450000C5
:106BA00087450000874500008745000087450000B5
:106DD00087450000874500008B4B0900C2A27F0059
:106DE000FCFAF800FFFFFF00FFFFFF00FFFFFF00BE
:106DF000FFFFFF00FFFFFF00FFFFFF00FFFFFF009F
:106E0000FFFFFF00FFFFFF00FFFFFF00FFFFFF008E
:106E1000FFFFFF00FFFFFF00FFFFFF00FFFFFF007E
:106E2000FFFFFF00FFFFFF00FFFFFF00FFFFFF006E
:106E3000FFFFFF00FFFFFF00FFFFFF00FFFFFF005E
:106E4000FFFFFF00FFFFFF00FFFFFF00FFFFFF004E
:106E5000FFFFFF00FFFFFF00FFFFFF00FFFFFF003E
:106E6000FFFFFF00FFFFFF00FFFFFF00FFFFFF002E
:106E7000FFFFFF00FFFFFF00FFFFFF00FFFFFF001E
:106E8000FFFFFF00E7DBCE00A16D38008745000063
:106E900087450000874500008745000087450000C2
:106EA00087450000874500008745000087450000B2
:106EB00087450000874500008745000087450000A2
:106EC0008745000087450000874500008745000092
:106ED0008745000087450000C5A58300FFFFFF0030
:106EE000FFFFFF00FFFFFF00FFFFFF00FFFFFF00AE
:106EF000FFFFFF00FFFFFF00FFFFFF00FFFFFF009E
:106F0000FFFFFF00FFFFFF00FFFFFF00FFFFFF008D
:106F1000FFFFFF00FFFFFF00FFFFFF00FFFFFF007D
:106F2000FFFFFF00FFFFFF00AC7F4F008745000021
:106F30008745000087450000874500008745000021
:106F40008745000087450000874500008745000011
:106F50008745000087450000874500008745000001
:106F600087450000874500008745000087450000F1
:1071900087450000A87A4800F0E8E000FFFFFF0004
:1071A000FFFFFF00FFFFFF00FFFFFF00FFFFFF00EB
:1071B000FFFFFF00FFFFFF00FFFFFF00FFFFFF00DB
:1071C000FFFFFF00FFFFFF00FFFFFF00FFFFFF00CB
:1071D000FFFFFF00FFFFFF00FFFFFF00FFFFFF00BB
:1071E000FFFFFF00FFFFFF00FFFFFF00FFFFFF00AB
:1071F000FFFFFF00FFFFFF00FFFFFF00FFFFFF009B
:10720000FFFFFF00FFFFFF00FFFFFF00FFFFFF008A
:10721000FFFFFF00FFFFFF00FFFFFF00FFFFFF007A
:10722000FFFFFF00FFFFFF00FFFFFF00FFFFFF006A
:10723000FFFFFF00FFFFFF00FFFFFF00FFFFFF005A
:10724000FFFFFF00FFFFFF00FEFEFD00CEB2960035
:107250008C4D0B00874500008745000087450000E6
:1072600087450000874500008745000087450000EE
:1072700087450000874500008745000087450000DE
:1072800087450000874500008745000087450000CE
:107290008745000087450000C5A58300FFFFFF006C
:1072A000FFFFFF00FFFFFF00FFFFFF00FFFFFF00EA
:1072B000FFFFFF00FFFFFF00FFFFFF00FFFFFF00DA
:1072C000FFFFFF00FFFFFF00FFFFFF00FFFFFF00CA
:1072D000FFFFFF00FFFFFF00FFFFFF00FFFFFF00BA
:1072E000FFFFFF00FFFFFF00AC7F4F00874500005E
:1072F000874500008745000087450000874500005E
:10730000874500008745000087450000874500004D
:10731000874500008745000087450000874500003D
:10732000874500008745000087450000874500002D
:107540008745000087450000874500008847040004
:10755000C2A27F00FEFEFD00FFFFFF00FFFFFF0055
:10756000FFFFFF00FFFFFF00FFFFFF00FFFFFF0027
:10757000FFFFFF00FFFFFF00FFFFFF00FFFFFF0017
:10758000FFFFFF00FFFFFF00FFFFFF00FFFFFF0007
:10759000FFFFFF00FFFFFF00FFFFFF00FFFFFF00F7
:1075A000FFFFFF00FFFFFF00FFFFFF00FFFFFF00E7
:1075B000FFFFFF00FFFFFF00FFFFFF00FFFFFF00D7
:1075C000FFFFFF00FFFFFF00FFFFFF00FFFFFF00C7
:1075D000FFFFFF00FFFFFF00FFFFFF00FFFFFF00B7
:1075E000FFFFFF00FFFFFF00FFFFFF00FFFFFF00A7
:1075F000FFFFFF00FFFFFF00FFFFFF00FFFFFF0097
:10760000FFFFFF00FFFFFF00FFFFFF00FFFFFF0086
:10761000ECE1D7009C672E008745000087450000FD
:10762000874500008745000087450000874500002A
:10763000874500008745000087450000874500001A
:10764000874500008745000087450000874500000A
:107650008745000087450000C5A58300FFFFFF00A8
:10766000FFFFFF00FFFFFF00FFFFFF00FFFFFF0026
:10767000FFFFFF00FFFFFF00FFFFFF00FFFFFF0016
:10768000FFFFFF00FFFFFF00FFFFFF00FFFFFF0006
:10769000FFFFFF00FFFFFF00FFFFFF00FFFFFF00F6
:1076A000FFFFFF00FFFFFF00AC7F4F00874500009A
:1076B000874500008745000087450000874500009A
:1076C000874500008745000087450000874500008A
:1076D000874500008745000087450000874500007A
:1076E000874500008745000087450000874500006A
:107900008745000087450000955A1E00E3D4C60055
:10791000FFFFFF00FFFFFF00FFFFFF00FFFFFF0073
:10792000FFFFFF00FFFFFF00FFFFFF00FFFFFF0063
:10793000FFFFFF00FFFFFF00FFFFFF00FFFFFF0053
:10794000FFFFFF00FFFFFF00FFFFFF00FFFFFF0043
:10795000FFFFFF00FFFFFF00FFFFFF00FFFFFF0033
:10796000FFFFFF00FFFFFF00FFFFFF00FFFFFF0023
:10797000FFFFFF00FFFFFF00FFFFFF00FFFFFF0013
:10798000FFFFFF00FFFFFF00FFFFFF00FFFFFF0003
:10799000FFFFFF00FFFFFF00FFFFFF00FFFFFF00F3
:1079A000FFFFFF00FFFFFF00FFFFFF00FFFFFF00E3
:1079B000FFFFFF00FFFFFF00FFFFFF00FFFFFF00D3
:1079C000FFFFFF00FFFFFF00FFFFFF00FFFFFF00C3
:1079D000FFFFFF00FBF8F600B68D6300874500004F
:1079E0008745000087450000874500008745000067
:1079F0008745000087450000874500008745000057
:107A00008745000087450000874500008745000046
:107A10008745000087450000C5A58300FFFFFF00E4
:107A2000FFFFFF00FFFFFF00FFFFFF00FFFFFF0062
:107A3000FFFFFF00FFFFFF00FFFFFF00FFFFFF0052
:107A4000FFFFFF00FFFFFF00FFFFFF00FFFFFF0042
:107A5000FFFFFF00FFFFFF00FFFFFF00FFFFFF0032
:107A6000FFFFFF00FFFFFF00AC7F4F0087450000D6
:107A700087450000874500008745000087450000D6
:107A800087450000874500008745000087450000C6
:107A900087450000874500008745000087450000B6
:107AA00087450000874500008745000087450000A6
:107CC000874500009B652C00F1EAE400FFFFFF0000
:107CD000FFFFFF00FFFFFF00FFFFFF00FFFFFF00B0
:107CE000FFFFFF00FFFFFF00FFFFFF00FFFFFF00A0
:107CF000FFFFFF00FFFFFF00FFFFFF00FFFFFF0090
:107D0000FFFFFF00FFFFFF00FFFFFF00FFFFFF007F
:107D1000FFFFFF00FFFFFF00FFFFFF00FFFFFF006F
:107D2000FFFFFF00FFFFFF00FFFFFF00FFFFFF005F
:107D3000FFFFFF00FFFFFF00FFFFFF00FFFFFF004F
:107D4000FFFFFF00FFFFFF00FFFFFF00FFFFFF003F
:107D5000FFFFFF00FFFFFF00FFFFFF00FFFFFF002F
:107D6000FFFFFF00FFFFFF00FFFFFF00FFFFFF001F
:107D7000FFFFFF00FFFFFF00FFFFFF00FFFFFF000F
:107D8000FFFFFF00FFFFFF00FFFFFF00FFFFFF00FF
:107D9000FFFFFF00FFFFFF00FFFFFF00CBAE9000E3
:107DA00087460200874500008745000087450000A0
:107DB0008745000087450000874500008745000093
:107DC0008745000087450000874500008745000083
:107DD0008745000087450000C5A58300FFFFFF0021
:107DE000FFFFFF00FFFFFF00FFFFFF00FFFFFF009F
:107DF000FFFFFF00FFFFFF00FFFFFF00FFFFFF008F
:107E0000FFFFFF00FFFFFF00FFFFFF00FFFFFF007E
:107E1000FFFFFF00FFFFFF00FFFFFF00FFFFFF006E
:107E2000FFFFFF00FFFFFF00AC7F4F008745000012
:107E30008745000087450000874500008745000012
:107E40008745000087450000874500008745000002
:107E500087450000874500008745000087450000F2
:107E600087450000874500008745000087450000E2
:10808000A5734000F8F4F000FFFFFF00FFFFFF00C2
:10809000FFFFFF00FFFFFF00FFFFFF00FFFFFF00EC
:1080A000FFFFFF00FFFFFF00FFFFFF00FFFFFF00DC
:1080B000FFFFFF00FFFFFF00FFFFFF00FFFFFF00CC
:1080C000FFFFFF00FFFFFF00FFFFFF00FFFFFF00BC
:1080D000FFFFFF00FFFFFF00FFFFFF00FFFFFF00AC
:1080E000FFFFFF00FFFFFF00FFFFFF00FFFFFF009C
:1080F000FFFFFF00FFFFFF00FFFFFF00FFFFFF008C
:10810000FFFFFF00FFFFFF00FFFFFF00FFFFFF007B
:10811000FFFFFF00FFFFFF00FFFFFF00FFFFFF006B
:10812000FFFFFF00FFFFFF00FFFFFF00FFFFFF005B
:10813000FFFFFF00FFFFFF00FFFFFF00FFFFFF004B
:10814000FFFFFF00FFFFFF00FFFFFF00FFFFFF003B
:10815000FFFFFF00FFFFFF00FFFFFF00FFFFFF002B
:10816000D4BCA4008948050087450000874500006D
:1081700087450000874500008745000087450000CF
:1081800087450000874500008745000087450000BF
:108190008745000087450000C5A58300FFFFFF005D
:1081A000FFFFFF00FFFFFF00FFFFFF00FFFFFF00DB
:1081B000FFFFFF00FFFFFF00FFFFFF00FFFFFF00CB
:1081C000FFFFFF00FFFFFF00FFFFFF00FFFFFF00BB
:1081D000FFFFFF00FFFFFF00FFFFFF00FFFFFF00AB
:1081E000FFFFFF00FFFFFF00DCCAB600CDB0940028
:1081F000CDB09400CDB09400CDB09400CDB094003B
:10820000CDB09400CDB09400CDB09400CDB094002A
:10821000CDB09400CDB09400CDB09400CDB094001A
:10822000CDB09400CDB09400CDB09400CDB094000A
:10840000CDB09400CDB09400CDB09400874500006D
:10841000874500008745000087450000874500002C
:10842000874500008745000087450000874500001C
:10843000874500008745000087450000AA7B4C0067
:10844000DCCAB600DFCDBB00DFCDBB00DFCDBB009B
:10845000DFCDBB00DFCDBB00DFCDBB00DFCDBB0080
:10846000DFCDBB00DFCDBB00DFCDBB00DFCDBB0070
:10847000DFCDBB00DFCDBB00DFCDBB00DFCDBB0060
:10848000DFCDBB00DFCDBB00DFCDBB00DFCDBB0050
:10849000DFCDBB00DFCDBB00DFCDBB00DFCDBB0040
:1084A000DFCDBB00DFCDBB00DFCDBB00DFCDBB0030
:1084B000DFCDBB00DFCDBB00DFCDBB00DFCDBB0020
:1084C000DFCDBB00DFCDBB00DFCDBB00DFCDBB0010
:1084D000DFCDBB00DFCDBB00DFCDBB00DFCDBB0000
:1084E000DFCDBB00DFCDBB00DFCDBB00DFCDBB00F0
:1084F000DFCDBB00DFCDBB00DFCDBB00DFCDBB00E0
:10850000DFCDBB00DFCDBB00DFCDBB00DFCDBB00CF
:10851000DFCDBB00DFCDBB00DFCDBB00DFCDBB00BF
:10852000DFCDBB00CEB398008A4A08008745000023
:10853000874500008745000087450000874500000B
:1085400087450000874500008745000087450000FB
:108550008745000087450000C5A58300FFFFFF0099
:10856000FFFFFF00FFFFFF00FFFFFF00FFFFFF0017
:10857000FFFFFF00FFFFFF00FFFFFF00FFFFFF0007
:10858000FFFFFF00FFFFFF00FFFFFF00FFFFFF00F7
:10859000FFFFFF00FFFFFF00FFFFFF00FFFFFF00E7
:1087C000FFFFFF00FFFFFF00FFFFFF0087450000E6
:1087D0008745000087450000874500008745000069
:1087E0008745000087450000874500008745000059
:1087F0008745000087450000A6734100E4D8C90002
:108800008745000087450000874500008745000038
:108810008745000087450000874500008745000028
:108820008745000087450000874500008745000018
:108830008745000087450000874500008745000008
:1088400087450000874500008745000087450000F8
:1088500087450000874602009D672F00B68D6300A4
:10886000C7A88900DAC5B000E3D4C600E8DDD100AE
:10887000EFE6DD00ECE2D900E7DACC00DECEBC00AA
:10888000CFB69B00BE997500A97A4A008E4F0F00A3
:1088900087450000874500008745000087450000A8
:1088A0008745000087450000874500008745000098
:1088B0008745000087450000874500008745000088
:1088C0008745000087450000874500008745000078
:1088D0008745000087450000874500008745000068
:1088E00087450000AF835500D9C6B1008847040012
:1088F0008745000087450000874500008745000048
:108900008745000087450000874500008745000037
:108910008745000087450000C5A58300FFFFFF00D5
:10892000FFFFFF00FFFFFF00FFFFFF00FFFFFF0053
:10893000FFFFFF00FFFFFF00FFFFFF00FFFFFF0043
:10894000FFFFFF00FFFFFF00FFFFFF00FFFFFF0033
:10895000FFFFFF00FFFFFF00FFFFFF00FFFFFF0023
:108B8000FFFFFF00FFFFFF00FFFFFF008745000022
:108B900087450000874500008745000087450000A5
:108BA0008745000087450000874500008745000095
:108BB000874500009D672F00F7F3EF00E9DDD00047
:108BC0008745000087450000874500008745000075
:108BD0008745000087450000874500008745000065
:108BE0008745000087450000874500008745000055
:108BF0008745000087450000874500008745000045
:108C000087450000874500008A4A0800AF83550069
:108C1000D7C2AB00F5F0EB00FFFFFF00FFFFFF0046
:108C2000FFFFFF00FFFFFF00FFFFFF00FFFFFF0050
:108C3000FFFFFF00FFFFFF00FFFFFF00FFFFFF0040
:108C4000FFFFFF00FFFFFF00FFFFFF00FEFDFC0036
:108C5000E6D8C900C2A27F00965F230087450000C6
:108C600087450000874500008745000087450000D4
:108C700087450000874500008745000087450000C4
:108C800087450000874500008745000087450000B4
:108C900087450000874500008745000087450000A4
:108CA00087450000AF835500FFFFFF00D3BAA10046
:108CB0008745010087450000874500008745000083
:108CC0008745000087450000874500008745000074
:108CD0008745000087450000C5A58300FFFFFF0012
:108CE000FFFFFF00FFFFFF00FFFFFF00FFFFFF0090
:108CF000FFFFFF00FFFFFF00FFFFFF00FFFFFF0080
:108D0000FFFFFF00FFFFFF00FFFFFF00FFFFFF006F
:108D1000FFFFFF00FFFFFF00FFFFFF00FFFFFF005F
:108F4000FFFFFF00FFFFFF00FFFFFF00874500005E
:108F500087450000874500008745000087450000E1
:108F600087450000874500008745000087450000D1
:108F7000965C2000F4EFE900FFFFFF00E9DDD00080
:108F800087450000874500008745000087450000B1
:108F900087450000874500008745000087450000A1
:108FA0008745000087450000874500008745000091
:108FB0008745000087450000874500008745000081
:108FC000975D2100CDB09400F7F3EF00FFFFFF00A5
:108FD000FFFFFF00FFFFFF00FFFFFF00FFFFFF009D
:108FE000FFFFFF00FFFFFF00FFFFFF00FFFFFF008D
:108FF000FFFFFF00FFFFFF00FFFFFF00FFFFFF007D
:10900000FFFFFF00FFFFFF00FFFFFF00FFFFFF006C
:10901000FFFFFF00FFFFFF00FFFEFE00E3D4C500DF
:10902000AF82540087460200874500008745000054
:109030008745000087450000874500008745000000
:1090400087450000874500008745000087450000F0
:1090500087450000874500008745000087450000E0
:1090600087450000AF835500FFFFFF00FFFFFF00B3
:10907000C2A27F00874500008745000087450000A9
:1090800087450000874500008745000087450000B0
:109090008745000087450000C5A58300FFFFFF004E
:1090A000FFFFFF00FFFFFF00FFFFFF00FFFFFF00CC
:1090B000FFFFFF00FFFFFF00FFFFFF00FFFFFF00BC
:1090C000FFFFFF00FFFFFF00FFFFFF00FFFFFF00AC
:1090D000FFFFFF00FFFFFF00FFFFFF00FFFFFF009C
:10930000FFFFFF00FFFFFF00FFFFFF00874500009A
:10931000874500008745000087450000874500001D
:109320008745000087450000874500008948050003
:10933000E3D4C600FFFFFF00FFFFFF00E9DDD00020
:1093400087450000874500008745000087450000ED
:1093500087450000874500008745000087450000DD
:1093600087450000874500008745000087450000CD
:109370008745000087450000955A1E00D3BAA1001A
:10938000FDFCFB00FFFFFF00FFFFFF00FFFFFF00F2
:10939000FFFFFF00FFFFFF00FFFFFF00FFFFFF00D9
:1093A000FFFFFF00FFFFFF00FFFFFF00FFFFFF00C9
:1093B000FFFFFF00FFFFFF00FFFFFF00FFFFFF00B9
:1093C000FFFFFF00FFFFFF00FFFFFF00FFFFFF00A9
:1093D000FFFFFF00FFFFFF00FFFFFF00FFFFFF0099
:1093E000FFFFFF00ECE1D700AF8558008745000084
:1093F000874500008745000087450000874500003D
:10940000874500008745000087450000874500002C
:10941000874500008745000087450000874500001C
:1094200087450000AF835500FFFFFF00FFFFFF00EF
:10943000FEFEFD00A7784700874500008745000035
:1094400087450000874500008745000087450000EC
:109450008745000087450000C5A58300FFFFFF008A
:10946000FFFFFF00FFFFFF00FFFFFF00FFFFFF0008
:10947000FFFFFF00FFFFFF00FFFFFF00FFFFFF00F8
:10948000FFFFFF00FFFFFF00FFFFFF00FFFFFF00E8
:10949000FFFFFF00FFFFFF00FFFFFF00FFFFFF00D8
:1096C000FFFFFF00FFFFFF00FFFFFF0087450000D7
:1096D000874500008745000087450000874500005A
:1096E000874500008745000087450000CAAF91000C
:1096F000FFFFFF00FFFFFF00FFFFFF00E9DDD000DD
:109700008745000087450000874500008745000029
:109710008745000087450000874500008745000019
:109720008745000087450000874500008745000009
:1097300089490600BF9B7700F9F7F400FFFFFF009F
:10974000FFFFFF00FFFFFF00FFFFFF00FFFFFF0025
:10975000FFFFFF00FFFFFF00FFFFFF00FFFFFF0015
:10976000FFFFFF00FFFFFF00FFFFFF00FFFFFF0005
:10977000FFFFFF00FFFFFF00FFFFFF00FFFFFF00F5
:10978000FFFFFF00FFFFFF00FFFFFF00FFFFFF00E5
:10979000FFFFFF00FFFFFF00FFFFFF00FFFFFF00D5
:1097A000FFFFFF00FFFFFF00FFFFFF00DFD0BE0055
:1097B0009A632A008745000087450000874500001E
:1097C0008745000087450000874500008745000069
:1097D0008745000087450000874500008745000059
:1097E00087450000AF835500FFFFFF00FFFFFF002C
:1097F000FFFFFF00F5F0EA0093581B0087450000CB
:109800008745000087450000874500008745000028
:109810008745000087450000C5A58300FFFFFF00C6
:10982000FFFFFF00FFFFFF00FFFFFF00FFFFFF0044
:10983000FFFFFF00FFFFFF00FFFFFF00FFFFFF0034
:10984000FFFFFF00FFFFFF00FFFFFF00FFFFFF0024
:10985000FFFFFF00FFFFFF00FFFFFF00FFFFFF0014
:109A5000FFFFFF00F3ECE600F1E9E200FFFFFF008B
:109A6000FFFFFF00FFFFFF00FFFFFF00FFFFFF0002
:109A7000FFFFFF00FFFFFF00FFFFFF00FFFFFF00F2
:109A8000FFFFFF00FFFFFF00FFFFFF008745000013
:109A90008745000087450000874500008745000096
:109AA0008745000087450000AC7F4F00FFFEFE00A9
:109AB000FFFFFF00FFFFFF00FFFFFF00E9DDD00019
:109AC0008745000087450000874500008745000066
:109AD0008745000087450000874500008745000056
:109AE000874500008745000087450000955B1F0003
:109AF000E5D5C700FFFFFF00FFFFFF00FFFFFF00EE
:109B0000FFFFFF00FFFFFF00FFFFFF00FFFFFF0061
:109B1000FFFFFF00FFFFFF00FFFFFF00FFFFFF0051
:109B2000FFFFFF00FFFFFF00FFFFFF00FFFFFF0041
:109B3000FFFFFF00FFFFFF00FFFFFF00FFFFFF0031
:109B4000FFFFFF00FFFFFF00FFFFFF00FFFFFF0021
:109B5000FFFFFF00FFFFFF00FFFFFF00FFFFFF0011
:109B6000FFFFFF00FFFFFF00FFFFFF00FFFFFF0001
:109B7000FCFAF800BA956E008745010087450000A1
:109B800087450000874500008745000087450000A5
:109B90008745000087450000874500008745000095
:109BA00087450000AF835500FFFFFF00FFFFFF0068
:109BB000FFFFFF00FFFFFF00E2D2C1008746020067
:109BC0008745000087450000874500008745000065
:109BD0008745000087450000C5A58300FFFFFF0003
:109BE000FFFFFF00FFFFFF00FFFFFF00FFFFFF0081
:109BF000FFFFFF00FFFFFF00FFFFFF00FFFFFF0071
:109C0000FFFFFF00FFFFFF00FFFFFF00FFFFFF0060
:109C1000FFFFFF00FFFFFF00FFFFFF00FFFFFF0050
:109E0000FFFFFF00FFFFFF00FFFFFF00FDFBFA0069
:109E1000CBAE90008D4F0E00B68D6400FFFFFF00AB
:109E2000FFFFFF00FFFFFF00FFFFFF00FFFFFF003E
:109E3000FFFFFF00FFFFFF00FFFFFF00FFFFFF002E
:109E4000FFFFFF00FFFFFF00FFFFFF00874500004F
:109E500087450000874500008745000087450000D2
:109E6000874500008D4D0D00F1EAE400FFFFFF0083
:109E7000FFFFFF00FFFFFF00FFFFFF00E9DDD00055
:109E800087450000874500008745000087450000A2
:109E90008745000087450000874500008745000092
:109EA0008745000087450000AD805100F8F5F100BE
:109EB000FFFFFF00FFFFFF00FFFFFF00FFFFFF00AE
:109EC000FFFFFF00FFFFFF00FFFFFF00FFFFFF009E
:109ED000FFFFFF00FFFFFF00FFFFFF00FFFFFF008E
:109EE000FFFFFF00FFFFFF00FFFFFF00FFFFFF007E
:109EF000FFFFFF00FFFFFF00FFFFFF00FFFFFF006E
:109F0000FFFFFF00FFFFFF00FFFFFF00FFFFFF005D
:109F1000FFFFFF00FFFFFF00FFFFFF00FFFFFF004D
:109F2000FFFFFF00FFFFFF00FFFFFF00FFFFFF003D
:109F3000FFFFFF00FFFFFF00D7C2AB008C4D0B00FF
:109F400087450000874500008745000087450000E1
:109F500087450000874500008745000087450000D1
:109F600087450000AF835500FFFFFF00FFFFFF00A4
:109F7000FFFFFF00FFFFFF00FFFFFF00B69067003D
:109F800087450000874500008745000087450000A1
:109F90008745000087450000C5A58300FFFFFF003F
:109FA000FFFFFF00FFFFFF00FFFFFF00FFFFFF00BD
:109FB000FFFFFF00FFFFFF00FFFFFF00FFFFFF00AD
:109FC000FFFFFF00FFFFFF00FFFFFF00FFFFFF009D
:109FD000FFFFFF00FFFFFF00FFFFFF00FFFFFF008D
:10A1C000FFFFFF00FFFFFF00DAC7B300985F250025
:10A1D00087450000874500008A4A0800F3EEE80042
:10A1E000FFFFFF00FFFFFF00FFFFFF00FFFFFF007B
:10A1F000FFFFFF00FFFFFF00FFFFFF00FFFFFF006B
:10A20000FFFFFF00FFFFFF00FFFFFF00874500008B
:10A21000874500008745000087450000874500000E
:10A2200087450000CBAE9000FFFFFF00FFFFFF005F
:10A23000FFFFFF00FFFFFF00FFFFFF00E9DDD00091
:10A2400087450000874500008745000087450000DE
:10A2500087450000874500008745000087450000CE
